:020000040800F2
:1000000000000220BD200008291F0008311F000841
:10001000391F0008411F0008491F000800000000A8
:10002000000000000000000000000000511F000858
:100030005F1F0008000000006D1F00087D1F000802
:100040000D2100080D2100080D2100080D210008D8
:100050000D2100080D210008991F00080D2100083E
:100060000D2100080D2100080D2100080D210008B8
:100070000D2100080D2100080D2100080D210008A8
:100080000D2100080D2100080D2100080D21000898
:10009000A91F00080D2100080D2100080D210008EE
:1000A0000D2100080D2100080D2100080D21000878
:1000B0000D210008D11F00080D2100080D210008A6
:1000C0000D2100080D2100080D2100080D21000858
:1000D0000D2100080D2100080D210008E51F000872
:1000E0000D2100080D2100080D2100080D21000838
:1000F0000D2100080D2100080D2100080D21000828
:100100000D2100080D2100080D2100080D21000817
:100110000D2100080D2100080D2100080D21000807
:100120000D2100080D2100080D2100080D210008F7
:100130000D21000800000000000000000D21000853
:10014000052000080D2100080D2100080D210008E0
:100150000D2100080D2100080D2100080D210008C7
:100160000D2100080D2100080D2100080D210008B7
:100170000D2100080D210008000000000000000013
:080180000D2100080D2100080B
:1001900010B5054C237833B9044B13B10448AFF3C1
:1001A00000800123237010BD8C000020000000009F
:1001B0009C62000808B5034B1BB103490348AFF329
:1001C000008008BD00000000900000209C62000834
:1001D00001F0FF01102A2BDB10F0070F08D010F8F8
:1001E000013B013A8B422DD010F0070F42B3F6D1FC
:1001F000F0B441EA012141EA014122F007047FF015
:1002000000070023F0E80256083C85EA010586EA6B
:10021000010685FA47F5A3FA87F586FA47F6A5FAA7
:1002200087F68EB9EED1F0BC01F0FF0102F00702B3
:1002300032B110F8013B013A83EA010313B1F8D15E
:100240000020704701387047002D06BF354603383F
:10025000073815F0010F07D1013015F4807F02BF78
:10026000013015F4C03F0130F0BC0138704700BFC9
:1002700053B94AB9002908BF00281CBF4FF0FF310D
:100280004FF0FF3000F088B9ADF1080C6DE904CEF5
:1002900000F006F8DDF804E0DDE9022304B0704761
:1002A0002DE9F047089D8E4604468846002B4AD12A
:1002B0008A42174662D9B2FA82F64EB1C6F12003DD
:1002C00001FA06F820FA03F3B74043EA0808B440FD
:1002D0004FEA174E1FFA87FCB8FBFEF1230C0EFB0A
:1002E000118843EA084301FB0CF29A4209D9FB1832
:1002F00001F1FF3080F0EA809A4240F2E780023953
:100300003B449A1AA3B2B2FBFEF00EFB102243EA62
:10031000024300FB0CFC9C4509D9FB1800F1FF329D
:1003200080F0D6809C4540F2D3803B44023840EABE
:100330000140A3EB0C0300211DB1F3400022C5E9ED
:100340000032BDE8F0878B4205D90DB1C5E9000147
:1003500000210846F5E7B3FA83F1002946D1734539
:1003600002D3824200F20581841A6EEB030201205F
:100370009046002DE5D0C5E90048E2E7002A00F0EC
:100380009080B2FA82F6002E40F0A4808A1A030C04
:100390004FEA174E80B2BCB20121B2FBFEFC0EFB4D
:1003A0001C2243EA024304FB0CF29A4207D9FB18D1
:1003B0000CF1FF3802D29A4200F2E080C4469B1A48
:1003C000B3FBFEF20EFB123340EA034302FB04F4DC
:1003D0009C4207D9FB1802F1FF3002D29C4200F286
:1003E000CA8002461B1B42EA0C40A5E7C1F1200669
:1003F0008B4022FA06F71F430EFA01F420FA06F3A7
:100400002EFA06FE4FEA1749234300FA01F81FFAB5
:1004100087FCBEFBF9F01C0C09FB10EE44EA0E440D
:1004200000FB0CFEA64502FA01F209D93C1900F1C5
:10043000FF3A80F09C80A64540F2998002383C4407
:10044000A4EB0E041FFA83FEB4FBF9F309FB13447B
:100450004EEA044403FB0CFCA44508D93C1903F103
:10046000FF3E80F08280A4457FD9023B3C4443EAB2
:100470000040A4EB0C04A0FB02EC64457346E1468B
:1004800062D35FD05DB1B8EB030264EB090404FAF8
:1004900006F622FA01F31E43CC40C5E900640021B0
:1004A0004FE7B1FBF2FC010C41EA0E4180B240EA99
:1004B00001423B4638463C46B846BE462026B1FB84
:1004C000F7F1A2EB080241EA0C4166E7014618E7A2
:1004D00010462CE7C6F120022EFA02F3B740B140D5
:1004E00020FA02F24FEA174E0A43B3FBFEF8BCB201
:1004F0000EFB1833110C41EA034108FB04F9B0402C
:1005000089454FEA104380B23ED9791808F1FF3C83
:1005100001D289451FD8A1EB0901B1FBFEF909FB06
:1005200004F80EFB191192B242EA0142424529D267
:10053000BA1809F1FF31C4D24245C2D2A9F1020171
:100540003A44BEE7F0459DD2BEEB02036CEB070CCC
:100550000138E14696E7A7EB09094944A8F1020CE6
:10056000B1FBFEF909FB04F8DBE773467FE7504671
:1005700066E70846FDE63B44023A33E7ACF1020C7D
:100580003B441CE749469CE7A1EB0901C446B1FB8B
:10059000FEF909FB04F8C4E7704700BF80B584B0DA
:1005A00000AF78600B46FB707B681B7823F00F036D
:1005B000FB72FB78002B0BD0FB7A002B08D17B68F9
:1005C0001B7803F00F03BB727B680133FB6004E010
:1005D0007B68FB60134B1B88BB72FB681B782E2B60
:1005E00012D02E2B16DC222B02D0272B06D011E0A6
:1005F000FB781946786800F019F80FE0FB78194687
:10060000786800F089F809E0FB781946786800F00E
:1006100059F903E0044801F03DF800BF00BF10376E
:10062000BD4680BD98320020B462000880B588B015
:1006300000AF78600B46FB70642001F0BDF87B686A
:100640001B7823F00F03BB75FB78002B0BD0BB7D11
:10065000002B08D17B681B7803F00F03FB757B68C8
:100660000133BB6104E07B68BB61284B1B88FB75D1
:10067000FB7D032B08D07F233B7322237B73132343
:10068000BB730323FB772AE0BB6901331B781B0292
:10069000BA690232127813431D4A1288934208D075
:1006A0007F233B7322237B733123BB730323FB77AD
:1006B00015E0BB691B784033DBB23B73BB695B78E9
:1006C0007B73BB699B78BB73124B1B681B0ADBB245
:1006D000FB73104B1B68DBB23B740523FB77FB7F7E
:1006E000072B07D8FA7F07F10C031146184600F0D4
:1006F00067FB07E0FB7F9AB207F10C03114618462F
:1007000000F09CFB00BF2037BD4680BD9832002022
:10071000060000209821002080B58AB000AF7860E4
:100720000B46FB70642001F047F87B681B7823F0D0
:100730000F03FB75FB78002B0BD0FB7D002B08D142
:100740007B681B7803F00F03FB777B6801333B6208
:1007500004E07B683B62544B1B88FB773B6A0133A8
:100760001B78012B02D0022B33D077E0FB7F022BCA
:100770000AD07F233B733B6A1B787B731323BB73C5
:10078000032387F8273074E03B6A1B784033DBB2E1
:100790003B7301237B730023BB610CE0BB69023315
:1007A0004249BA690A44127828333B4403F81C2CA6
:1007B000BB690133BB61BB69052BEFDD082387F8FB
:1007C00027303B49394801F004F83A4B01221A70AE
:1007D0004FE0FB7F082B0AD07F233B733B6A1B78DB
:1007E0007B731323BB73032387F8273041E03B6AF5
:1007F0000233062219462E4801F012F90346002B57
:100800000AD17F233B733B6A1B787B733523BB7311
:10081000032387F827302CE0264B1B78002B3FD092
:10082000254B1B78DBB2002B3AD1244803F0ECFBBC
:10083000214B01221A7001220121214802F0BEFE43
:100840003B6A1B784033DBB23B7302237B7302238A
:1008500087F82730174B00221A700AE07F233B737A
:100860003B6A1B787B731323BB73032387F8273002
:1008700000BF97F82730072B08D897F8272007F1F3
:100880000C031146184600F09BFA0AE097F827304F
:100890009AB207F10C031146184600F0BBFB00E0CA
:1008A00000BF2837BD4680BD9832002000000020E0
:1008B0006032002091320020903200200821002078
:1008C0000004024080B588B000AF78600B46FB7032
:1008D000642000F071FF7B681B7823F00F03BB7569
:1008E000FB78002B0BD0BB7D002B08D17B681B78DD
:1008F00003F00F03FB757B680133BB6104E07B6889
:10090000BB61384B1B88FB75374B1B78DBB2002B68
:1009100008D17F233B732E237B733323BB730323C5
:10092000FB7748E0FB7D042B08D87F233B732E2305
:100930007B731323BB730323FB773CE0BB69013359
:100940001B781B02BA69023212781343274A1288B5
:10095000934208D07F233B732E237B733123BB73D9
:100960000323FB7727E0BB6903331B781BB21B0211
:100970001AB2BB6904331B781BB213431BB29AB281
:100980001A4B1A80BB6903331B781B02BA69043205
:1009900012781343C3F30A03154A1360BB691B782B
:1009A0004033DBB23B73BB69DB787B73BB691B797C
:1009B000BB730323FB77FB7F072B07D8FA7F07F175
:1009C0000C031146184600F0FBF907E0FB7F9AB2D2
:1009D00007F10C031146184600F030FA00BF20372B
:1009E000BD4680BD983200209032002006000020D5
:1009F0009432002080B500AF124B00221A70124BC7
:100A000000221A80114B00221A80114B00221A80FA
:100A1000104B00221A80104B01221A700F4B00223B
:100A20001A600F4B00221A604FF4805200210D48CB
:100A300004F0B6FF4FF4805200210B4804F0B0FFE1
:100A400000BF80BDAF20002098320020A8200020E9
:100A5000AA200020AC200020AE200020B0200020E2
:100A6000B4200020A8000020A810002080B582B08B
:100A700000AF0A4B1B68002B0CD001F0AFFB786075
:100A8000074B1B687A68D21A044B1B689A4201D341
:100A900000F01CF800BF0837BD4680BDB420002020
:100AA000B020002080B582B000AF786001F096FBE6
:100AB0000346044A1360044A7B68136000BF08378A
:100AC000BD4680BDB0200020B420002080B500AF1E
:100AD000034B1B78012BFFF78DFF00BF80BD00BFCC
:100AE000AF20002080B485B000AF786039607B68AB
:100AF0001B7823F00F03FB737B681B7803F00F0355
:100B0000BB73FB7B002B05D1BB7B9AB23B681A8081
:100B1000012316E0FB7B102B12D17B681B781BB2E4
:100B20001B021BB203F470631AB27B6801331B789B
:100B30001BB213431BB29AB23B681A80022300E037
:100B4000002318461437BD465DF8047B704700004B
:100B500080B584B000AF78607B681B7823F00F030A
:100B6000FB73FB7B302B00F0BC80302B00F3DD806F
:100B7000202B5ED0202B00F3D880002B02D0102B2E
:100B80001DD0D2E007F1080319467868FFF7AAFFE5
:100B90000346BB723B89002B00F0C0803B89072BCA
:100BA00000F2BC80BB7A7A6813443A8919466148DE
:100BB00004F02AFF01217868FFF7F0FCAEE05E49FF
:100BC0007868FFF78FFF0346BB725B4B1B88072BD0
:100BD00040F2A680584B1B88B3F5805F80F0A08060
:100BE000564B03221A70564B00221A80554B012295
:100BF0001A70BB7AC3F10803FB72514B1B881A466B
:100C0000514BD018BB7A7A681344FA7A194604F02B
:100C1000FBFEFB7A9AB24A4B1B8813449AB2484BAC
:100C20001A80002000F092F84FF47A70FFF73AFF34
:100C300076E0424B1B78032B03D0404B1B78042BF0
:100C400070D1404B1B7803F00F037B737B681B78DC
:100C500003F00F033B733A7B7B7B9A423ED1364BCA
:100C60001B881A46364B1B88D31A072BA8BF0723AD
:100C7000FB72334B1B881A46334BD0187B68013309
:100C8000FA7A194604F0C0FEFB7A9AB22C4B1B8804
:100C900013449AB22A4B1A802A4B1B780133DAB2DA
:100CA000284B1A70264B1A88234B1B889A420DD367
:100CB000214B1B881A4624491E4804F0A5FE00213A
:100CC0002148FFF76BFCFFF795FE2BE01B4B04223E
:100CD0001A704FF47A70FFF7E5FE23E0FFF78AFE03
:100CE00020E0164B1B78012B1ED17B681B7803F08C
:100CF0000F03BB73BB7B002B05D1104B02221A7074
:100D000000F002F910E0BB7B012B04D14FF47A70A4
:100D1000FFF7C8FE08E0FFF76DFE05E000BF04E046
:100D200000BF02E000BF00E000BF00BF1037BD46BB
:100D300080BD00BF5C22002098320020AF20002040
:100D4000A8200020AE200020A800002080B584B09C
:100D500000AF0346FB71FB7943F03003DAB2144B6A
:100D60001A70134B00225A70114B00229A70032301
:100D7000FB6007E00E4AFB68134455221A70FB68BB
:100D80000133FB60FB68072BF4DD0A4B084A0A4974
:100D90000A4801F073FC0346002B01D000F06EFFFF
:100DA000642000F009FD00BF1037BD4680BD00BFC4
:100DB0007832002054220020F4210020E02000207E
:100DC00080B584B000AF78600B46FB70FB78072BD2
:100DD00025D8154AFB781370FB781A4679681348B2
:100DE00004F012FEFB780133FB6007E00E4AFB685B
:100DF000134455221A70FB680133FB60FB68072B14
:100E0000F4DD0B4B084A0B490B4801F037FC034655
:100E1000002B01D000F032FF642000F0CDFC00BFB9
:100E20001037BD4680BD00BF7832002079320020E7
:100E300054220020F4210020E020002080B582B060
:100E400000AF78600B467B807B88072B44D97B887A
:100E5000B3F5805F40D27B881A467968204804F059
:100E6000D3FD204A7B8813801F4B06221A801F4B1C
:100E700001221A707B881B0A9BB25BB203F00F033E
:100E80005BB243F010035BB2DAB2194B1A707B8885
:100E9000DAB2174B5A7006227968164804F0B4FD8E
:100EA000154B1B689BB21249184600F01BFC134BF4
:100EB0000F4A1149124801F0E1FB0346002B01D013
:100EC00000F0DCFE0F4B01221A704FF47A70FFF72E
:100ED000E9FD642000F070FC00BF0837BD4680BD0E
:100EE000A8100020AA200020AC200020AE20002066
:100EF000783200207A320020F42100205422002091
:100F0000E0200020AF20002080B582B000AF5EE07E
:100F1000364B1B785BB203F00F035BB243F0200348
:100F20005BB2DAB2324B1A70324B1B88DAB2324BF8
:100F30001B88DBB2D31AFB70FB78072B28BF072373
:100F4000BB702D4B1B881A462C4B1344BA7819469C
:100F50002B4804F059FDBB789AB2274B1B881344E9
:100F60009AB2254B1A80BB7801337B6007E0204A98
:100F70007B68134455221A707B6801337B607B6861
:100F8000072BF4DD1F4B1B689BB21949184600F074
:100F9000A9FB1D4B164A1B491C4801F06FFB034679
:100FA000002B01D000F06AFE104B1B780133DAB23F
:100FB0000E4B1A700A2000F0FFFB0F4B1A880D4BE6
:100FC0001B889A4203D3FFF715FD00BF09E00A4BC7
:100FD0001A88084B1B889A4203D20D4B1B78022BB0
:100FE00096D000BF0837BD4680BD00BFAE200020B0
:100FF00078320020AA200020AC200020A810002079
:1010000079320020F421002054220020E02000202A
:10101000AF20002080B586B000AF78600B467B80A3
:101020007B88072B06D87B88DBB219467868FFF7E8
:10103000C7FE82E07B881B0A9BB25BB203F00F0302
:101040005BB243F010035BB2DAB23E4B1A707B889E
:10105000DAB23C4B5A70062279683B4804F0D4FC63
:101060003A4B1B689BB23749184600F03BFB384BA4
:10107000344A3649374801F001FB0346002B01D0C2
:1010800000F0FCFD322000F097FB0623FB820123D9
:101090007B754EE07B88DAB2FB8ADBB2D31AFB7336
:1010A000FB7B072B28BF0723BB7397F9153003F091
:1010B0000F035BB243F020035BB2DAB2214B1A702C
:1010C000FB8A7A681344BA7B1946234804F09CFCD7
:1010D000BB7B01333B6107E01A4A3B69134455224D
:1010E0001A703B6901333B613B69072BF4DD174BF9
:1010F0001B689BB21349184600F0F4FA144B114ACE
:101100001249144801F0BAFA0346002B01D000F04E
:10111000B5FDBB7B9AB2FB8A1344FB827B7D013316
:101120007B757B7D0F2B01D900237B750A2000F096
:1011300043FBFA8A7B889A42ACD300BF1837BD467E
:1011400080BD00BF783200207A320020F4210020D8
:1011500054220020E02000207932002080B500AF2A
:1011600000F0D6FF00F090F800F0DCF900F0F6F89F
:1011700000F02AF900F0ACF900F05CF900F0DEFCB8
:1011800000F018FD00F05EFA00F070FAFFF732FC94
:10119000304B1B68DA682F4B1B6842F02002DA6084
:1011A0002D4B1B689BB22D49184600F09BFAFFF7A8
:1011B0005DFC2B4B1B78DBB2012B0CD1294800F0D6
:1011C00069FA294B1B689BB22849184600F08AFA35
:1011D000234B00221A70264B1B88002B14D064204E
:1011E00000F0EAFA224B1B881946224800F038FB2F
:1011F0004FF4805200211F4804F0D2FB1C4B002208
:101200001A80642000F0D8FA02211B4802F0BEF9CF
:101210000346002BCBD1142000F0CEFA174800F083
:1012200039FA00BF0221144802F0B0F90346002B3E
:10123000F8D0134B1B68084A136000F0BBFC00F0A9
:1012400001FA00F013FA0F4800F024FA142000F01D
:10125000B3FAACE75021002098210020683200202A
:1012600088320020CC620008B021002070320020BB
:10127000582200205C22002000000240D8620008B2
:1012800094320020E062000880B594B000AF07F10E
:10129000200330220021184604F082FB07F10C03E2
:1012A00000221A605A609A60DA601A610023BB60FB
:1012B000284B1B6C274A43F080531364254B1B6C4F
:1012C00003F08053BB60BB6800237B60224B1B682C
:1012D000214A43F4804313601F4B1B6803F480438F
:1012E0007B607B6802233B620123FB6210233B632C
:1012F0000223BB630023FB6308233B6450237B640E
:101300000223BB640423FB6407F12003184602F0A8
:1013100093F90346002B01D000F0B0FC0F23FB60D3
:1013200002233B6100237B614FF48053BB614FF488
:101330008053FB6107F10C030221184602F0F4FB15
:101340000346002B01D000F099FC00BF5037BD468A
:1013500080BD00BF003802400070004080B500AF83
:10136000174B184A1A60164B15225A60144B00226C
:101370009A60134B0022DA60114B4FF430221A614D
:101380000F4B4FF440125A610D4B00221A760C4B52
:1013900000225A760A4B00229A76094B0022DA760E
:1013A000074B00221A77064B00225A77044800F0B8
:1013B00045FF0346002B01D000F060FC00BF80BD5C
:1013C000B82000200064004080B500AF174B184AD9
:1013D0001A60164B15225A60144B00229A60134B68
:1013E0000022DA60114B4FF430221A610F4B4FF498
:1013F00040125A610D4B00221A760C4B00225A768D
:101400000A4B00229A76094B0022DA76074B00221B
:101410001A77064B00225A77044800F00FFF034664
:10142000002B01D000F02AFC00BF80BDE02000208E
:101430000068004080B586B000AF07F108030022C5
:101440001A605A609A60DA603B4600221A605A605D
:101450001D4B1E4A1A601C4B41F63F725A601A4BD4
:1014600000229A60184B4CF24F32DA60164B002281
:101470001A61154B00229A61134802F075FD03466C
:10148000002B01D000F0FAFB4FF48053BB6007F152
:10149000080319460C4802F046FF0346002B01D012
:1014A00000F0ECFB00233B6000237B603B461946C9
:1014B000054803F06DF90346002B01D000F0DEFB78
:1014C00000BF1837BD4680BD082100200004004041
:1014D00080B500AF114B124A1A60104B4FF4E13245
:1014E0005A600E4B00229A600C4B0022DA600B4BC4
:1014F00000221A61094B0C225A61084B00229A61A2
:10150000064B0022DA61054803F0D2F90346002BAE
:1015100001D000F0B3FB00BF80BD00BF5021002010
:101520000048004080B58AB000AF07F114030022E4
:101530001A605A609A60DA601A6100233B613D4B81
:101540001B6B3C4A43F0040313633A4B1B6B03F0E1
:1015500004033B613B690023FB60364B1B6B354A40
:1015600043F080031363334B1B6B03F08003FB607A
:10157000FB680023BB602F4B1B6B2E4A43F001031B
:1015800013632C4B1B6B03F00103BB60BB68002390
:101590007B60284B1B6B274A43F002031363254BE8
:1015A0001B6B03F002037B607B6800220121224851
:1015B00002F004F842F2F0037B610023BB610123D7
:1015C000FB6107F1140319461C4801F043FE012397
:1015D0007B614FF40413BB610123FB6107F114032A
:1015E0001946174801F036FE02237B610023BB61D8
:1015F0000123FB6107F114031946114801F02AFE8B
:1016000001237B610123BB610023FB6100233B625B
:1016100007F114031946084801F01CFE00220121BD
:10162000062001F04EFD062001F067FD00BF2837BF
:10163000BD4680BD00380240000402400008024060
:101640000000024080B500AF0649074800F0F2FEF6
:10165000054800F0CFFF0221034801F001FA00BF66
:1016600080BD00BFCC210020B820002080B500AF95
:101670000649074800F0DEFE054800F0BBFF0221E6
:10168000034801F0EDF900BF80BD00BF2822002013
:10169000E020002080B584B000AF786017E07B6860
:1016A0001B780A2B09D10D23FB7307F10F014FF0B3
:1016B000FF3301220A4803F04BF94FF0FF330122B8
:1016C0007968074803F044F97B6801337B607B68E5
:1016D0001B78002BE3D100BF00BF1037BD4680BD93
:1016E00050210020F0B58DB008AF0346B960FB81F2
:1016F0001E4B1B681A461E491E4804F02FF91D4850
:10170000FFF7C8FFFA89BB681B789C46BB680133AA
:101710001B781946BB6802331B781846BB68033335
:101720001B781C46BB6804331B781D46BB68053319
:101730001B781E46BB6806331B787B60BB6807338B
:101740001B7806937B680593049603950294019099
:10175000009163460849074804F000F90548FFF77F
:1017600099FF00BF1437BD46F0BD00BF8C3200208A
:10177000EC62000808000020F062000880B483B02A
:1017800000AF7860094B1B881A46094B1978094B42
:101790009954064B1B8801339AB2044B1A8000BF40
:1017A0000C37BD465DF8047B704700BF582200200F
:1017B0005C3200205C22002080B582B000AF03467E
:1017C000FB80FB88184600F015FD00BF0837BD46BA
:1017D00080BD80B483B000AF786039607B681A78D0
:1017E0007B6801331B785340DAB23B681A707B6820
:1017F000013319787B6802331A783B6801330A4455
:10180000D2B21A707B68023319787B6803331A7876
:101810003B6802334A40D2B21A707B6803331978AE
:101820007B681A783B6803330A44D2B21A707B682B
:1018300004331A783B68043322F00F02D2B21A70D4
:101840007B6805331A783B68053302F00F02D2B289
:101850001A7000BF0C37BD465DF8047B704700006E
:1018600080B5A0B000AF78600B467B807B88002BF2
:1018700003D07B88B3F5805F03D36148FFF70AFF8D
:10188000BBE07B88072B1ED87B88DAB25D4B1A70D1
:101890007B881A4679685C4804F0B6F87B88013387
:1018A000FB6707E0574AFB6F134455221A70FB6F22
:1018B0000133FB67FB6F072BF4DD5448FFF7EAFEAB
:1018C00000F01EF999E07B881B0A9BB25BB203F023
:1018D0000F035BB243F010035BB2DAB2494B1A70EC
:1018E0007B88DAB2474B5A7006227968484804F080
:1018F0008BF807F10C034749184604F02FF807F15D
:101900000C031846FFF7C6FE434B1B689BB23D49CC
:101910001846FFF7E7FE00F0F3F86420FFF74CFFEE
:101920000623A7F87A30012387F8793060E07B88B6
:10193000DAB2B7F87A30DBB2D31A87F8733097F897
:101940007330072B28BF072387F8723097F9793057
:1019500003F00F035BB243F020035BB2DAB2294B12
:101960001A70B7F87A307A68134497F872201946DB
:10197000254804F049F897F8723001337B6707E097
:10198000204A7B6F134455221A707B6F01337B67AB
:101990007B6F072BF4DD97F8792007F10C031F49C3
:1019A000184603F0DBFF07F10C031846FFF772FE41
:1019B000194B1B689BB213491846FFF793FE00F0C2
:1019C0009FF897F872309AB2B7F87A301344A7F8B4
:1019D0007A3097F87930013387F8793097F8793091
:1019E0000F2B02D9002387F879303220FFF7E4FE6D
:1019F000B7F87A207B889A4299D38037BD4680BD5C
:101A00002463000868320020693200204063000827
:101A10006A3200204C6300089821002064630008AB
:101A200080B487B000AFF860B9601346FB71002343
:101A3000FB750EE0FB7DFA6813441A78FB7DB968EC
:101A40000B441B789A4201D0002307E0FB7D013351
:101A5000FB75FA7DFB799A42ECD3012318461C37BB
:101A6000BD465DF8047B704780B584B000AF7860F8
:101A70007B681C4A93421CD11B4B1C4A002178688E
:101A800000F0CCFE0346FB73FB7B002B01D000F083
:101A9000F5F8154B1B7823F00F03BB73BB7B302B82
:101AA00003D11148FFF754F818E0114B01221A70C6
:101AB00014E07B680F4A934210D10F4B0F4A00216C
:101AC000786800F0ABFE0346FB73FB7B002B01D074
:101AD00000F0D4F80848FFF73BF800BF1037BD46C8
:101AE00080BD00BFB820002070320020B02100204F
:101AF00088320020E0200020803200200C220020CC
:101B000080B500AF094B1B689BB209491846FFF727
:101B1000E9FD084B064A0549074800F0AFFD0346BA
:101B2000002B01D000F0AAF800BF80BD9821002052
:101B30006832002050220020B820002080B500AF7D
:101B4000194B00229A60184B40F212721A60164B21
:101B50000022DA60144B08221A61144B01221A6227
:101B6000124B0E225A61114B00221A610F4B4FF299
:101B700040421A600D4B00225A600C4B4FF240421B
:101B80009A600A4B0022DA60084B00229A61074BE8
:101B90000122DA61054B10225A620449044800F020
:101BA00049FC00BF80BD00BF98210020CC2100204F
:101BB000B820002080B500AF184B00229A60174B68
:101BC00040F2A2721A60154B0022DA60134B082211
:101BD0001A61134B01221A62114B12225A61104BE7
:101BE00000221A610F4B1B685B010D4A13600C4BFE
:101BF00000225A600B4B1B685B01094A9360084B3B
:101C00000022DA60064B00229A61054B0122DA615C
:101C10000349054800F00EFC00BF80BDF421002000
:101C20002822002098210020E020002080B582B0EA
:101C300000AF78607B680D4A934214D10C4B1B783F
:101C4000DBB2002B0ED0786802F04EFA084B00226F
:101C50001A7000220121074801F0B0FC0648FFF786
:101C600019FD00E000BF0837BD4680BD08210020F7
:101C700090320020000402408463000880B400AF6A
:101C800072B600BF00BFFDE780B483B000AF002391
:101C90007B60104B5B6C0F4A43F4804353640D4BE5
:101CA0005B6C03F480437B607B6800233B60094BE3
:101CB0001B6C084A43F080531364064B1B6C03F003
:101CC00080533B603B6800BF0C37BD465DF8047B2A
:101CD000704700BF0038024080B58CB000AF78601C
:101CE00007F11C0300221A605A609A60DA601A61D8
:101CF0007B681B684A4A93423ED14A4B1B680133BA
:101D0000484A1360474B1B68012B0DD10023BB6170
:101D1000454B1B6C444A43F000731364424B1B6CED
:101D200003F00073BB61BB6900237B613E4B1B6BFF
:101D30003D4A43F0010313633B4B1B6B03F001036C
:101D40007B617B694FF4C053FB6102233B6200233C
:101D50007B620323BB620923FB6207F11C03194664
:101D6000324801F077FA00220221142001F0A9F98B
:101D7000142001F0C2F94FE07B681B682C4A9342A3
:101D80004AD100233B61284B1B6C274A43F08063F8
:101D90001364254B1B6C03F080633B613B69214B53
:101DA0001B6801331F4A13601E4B1B68012B0DD1AA
:101DB0000023FB601C4B1B6C1B4A43F00073136435
:101DC000194B1B6C03F00073FB60FB680023BB60C6
:101DD000154B1B6B144A43F002031363124B1B6B2E
:101DE00003F00203BB60BB686023FB6102233B621C
:101DF00000237B620323BB620923FB6207F11C0300
:101E000019460C4801F026FA00220221402001F078
:101E100058F9402001F071F900BF3037BD4680BD50
:101E2000006400409C320020003802400000024064
:101E3000006800400004024080B584B000AF7860C4
:101E40007B681B680E4A934215D10023FB600D4B43
:101E50001B6C0C4A43F0020313640A4B1B6C03F027
:101E60000203FB60FB68002200211D2001F029F91C
:101E70001D2001F042F900BF1037BD4680BD00BFF4
:101E8000000400400038024080B58AB000AF78609E
:101E900007F1140300221A605A609A60DA601A612E
:101EA0007B681B681D4A934234D100233B611C4B65
:101EB0001B6C1B4A43F480231364194B1B6C03F403
:101EC00080233B613B690023FB60154B1B6B144A6D
:101ED00043F004031363124B1B6B03F00403FB601A
:101EE000FB684FF440637B610223BB610023FB610D
:101EF00003233B6207237B6207F114031946094859
:101F000001F0A8F900220121272001F0DAF82720AA
:101F100001F0F3F800BF2837BD4680BD00480040FF
:101F2000003802400008024080B400AF00BFFDE767
:101F300080B400AF00BFFDE780B400AF00BFFDE795
:101F400080B400AF00BFFDE780B400AF00BFFDE785
:101F500080B400AF00BFBD465DF8047B704780B41D
:101F600000AF00BFBD465DF8047B704780B400AF92
:101F700000BFBD465DF8047B7047000080B500AF30
:101F800000F018F9034B1B680133024A136000BFCD
:101F900080BD00BF8C32002080B500AF012001F071
:101FA00027FB00BF80BD000080B500AF054800F0F2
:101FB0007DFD054B054A0021024800F02FFC00BFC3
:101FC00080BD00BFB820002070320020B02100206A
:101FD00080B500AF024802F0B6F800BF80BD00BF78
:101FE0000821002080B500AF044802F061FD012205
:101FF0000349024802F037FD00BF80BD5021002098
:102000005C32002080B500AF054800F04FFD054B65
:10201000054A0021024800F001FC00BF80BD00BF5E
:10202000E0200020803200200C22002080B586B005
:1020300000AF7860144A154BD31A7B617B693B6112
:10204000134B1B68002B02D1114B124A1A60104B24
:102050001A687B6813443A699A4207D203F0A8FCD5
:1020600003460C221A604FF0FF3309E0084B1B684F
:10207000FB60074B1A687B681344054A1360FB68D2
:1020800018461837BD4680BD00000220000400003D
:10209000A0320020F033002080B400AF064BD3F80C
:1020A0008830054A43F47003C2F8883000BFBD464B
:1020B0005DF8047B704700BF00ED00E0DFF834D02E
:1020C0000D480E490E4A002302E0D458C450043390
:1020D000C4188C42F9D30B4A0B4C002301E0136067
:1020E0000432A242FBD3FFF7D7FF03F067FCFFF7F0
:1020F00035F8704700000220000000208C0000200E
:10210000F06300088C000020F0330020FEE70000A0
:1021100080B500AF0E4B1B680D4A43F4007313608B
:102120000B4B1B680A4A43F480631360084B1B681F
:10213000074A43F480731360032000F0B7FF0020C8
:1021400000F008F8FFF7A0FD0023184680BD00BF8F
:10215000003C024080B582B000AF7860124B1A6834
:10216000124B1B7819464FF47A73B3FBF1F3B2FBB1
:10217000F3F3184600F0CFFF0346002B01D00123F4
:102180000EE07B680F2B0AD8002279684FF0FF30F1
:1021900000F097FF064A7B681360002300E00123EC
:1021A00018460837BD4680BD3000002038000020AA
:1021B0003400002080B400AF064B1B781A46064B53
:1021C0001B681344044A136000BFBD465DF8047BDE
:1021D000704700BF38000020A432002080B400AF58
:1021E000034B1B681846BD465DF8047B704700BF73
:1021F000A432002080B584B000AF7860FFF7EEFF16
:10220000B8607B68FB60FB68B3F1FF3F05D00A4B09
:102210001B781A46FB681344FB6000BFFFF7DEFF24
:102220000246BB68D31AFA689A42F7D800BF00BFCB
:102230001037BD4680BD00BF3800002080B584B097
:1022400000AF78607B68002B01D10123EDE07B6853
:1022500093F82030DBB2002B02D17868FFF73CFD09
:102260007B681B681A687B681B6842F001021A6071
:10227000FFF7B4FFF86012E0FFF7B0FF0246FB681B
:10228000D31A0A2B0BD97B685B6A43F400327B6854
:102290005A627B68052283F820200123C5E07B6811
:1022A0001B685B6803F00103002BE5D07B681B68AB
:1022B0001A687B681B6822F002021A60FFF78EFF23
:1022C000F86012E0FFF78AFF0246FB68D31A0A2B78
:1022D0000BD97B685B6A43F400327B685A627B6887
:1022E000052283F8202001239FE07B681B685B6840
:1022F00003F00203002BE5D17B681B7E012B08D184
:102300007B681B681A687B681B6842F080021A6051
:1023100007E07B681B681A687B681B6822F08002F4
:102320001A607B685B7E012B08D17B681B681A688A
:102330007B681B6842F040021A6007E07B681B68FC
:102340001A687B681B6822F040021A607B689B7EDB
:10235000012B08D17B681B681A687B681B6842F0F8
:1023600020021A6007E07B681B681A687B681B689C
:1023700022F020021A607B68DB7E012B08D17B688B
:102380001B681A687B681B6822F010021A6007E05D
:102390007B681B681A687B681B6842F010021A6031
:1023A0007B681B7F012B08D17B681B681A687B68E0
:1023B0001B6842F008021A6007E07B681B681A6815
:1023C0007B681B6822F008021A607B685B7F012B28
:1023D00008D17B681B681A687B681B6842F004029E
:1023E0001A6007E07B681B681A687B681B6822F02C
:1023F00004021A607B689A687B68DB681A437B6812
:102400001B691A437B685B6942EA03017B685B686E
:102410005A1E7B681B680A43DA617B6800225A6295
:102420007B68012283F82020002318461037BD4620
:1024300080BD000080B487B000AF786039607B68F1
:102440001B687B617B6893F82030FB74FB7C012B5D
:1024500003D0FB7C022B40F0BE80654B7B617B6927
:10246000D3F8003243F001027B69C3F800227B6994
:10247000D3F8003223F47C527B69C3F800227B69D5
:10248000D3F800223B685B6A1B021A437B69C3F8DE
:1024900000223B685B6903F01F03012202FA03F389
:1024A000FB607B69D3F81C22FB68DB431A407B6925
:1024B000C3F81C223B68DB69002B23D17B69D3F86E
:1024C0000C22FB68DB431A407B69C3F80C223B6893
:1024D000DB6819043B685B689BB23A685269194330
:1024E0007B69483243F832103B689B6819043B68AB
:1024F0001B689AB23B685B690A4379694833DB0021
:102500000B445A603B68DB69012B22D17B69D3F80D
:102510000C22FB681A437B69C3F80C223B681B68DA
:1025200019043B685B689BB23A68526919437B693E
:10253000483243F832103B689B6819043B68DB68FB
:102540009AB23B685B690A4379694833DB000B4404
:102550005A603B689B69002B09D17B69D3F8042240
:10256000FB68DB431A407B69C3F8042207E07B6900
:10257000D3F80422FB681A437B69C3F804223B6842
:102580001B69002B09D17B69D3F81422FB68DB435C
:102590001A407B69C3F8142207E07B69D3F8142240
:1025A000FB681A437B69C3F814223B681B6A012B42
:1025B00007D17B69D3F81C22FB681A437B69C3F8F7
:1025C0001C227B69D3F8003223F001027B69C3F837
:1025D0000022002306E07B685B6A43F480227B686C
:1025E0005A62012318461C37BD465DF8047B7047CC
:1025F0000064004080B584B000AF78607B6893F8D9
:102600002030DBB2012B2ED17B68022283F8202000
:102610007B681B681A687B681B6822F001021A60DD
:10262000FFF7DCFDF86012E0FFF7D8FD0246FB681B
:10263000D31A0A2B0BD97B685B6A43F400327B68A0
:102640005A627B68052283F82020012312E07B6810
:102650001B685B6803F00103002BE5D17B68002257
:102660005A62002306E07B685B6A43F400227B68C1
:102670005A62012318461037BD4680BD80B489B028
:1026800000AFF860B9607A603B60FB6893F8203077
:10269000FB77FB681B689B68BB61FB7F012B03D04A
:1026A000FB7F022B40F0AD80BB6903F08063002B01
:1026B0000AD1BB6903F00063002B05D1BB6903F0AD
:1026C0008053002B00F09580BB691B0E03F00303C1
:1026D0007B6101227B699A403B681A60BB689B68FA
:1026E000002B0DD1BB681B685A05BB68DB68F96815
:1026F00009681A437B6918331B010B441A600FE009
:10270000BB685B68DA00BB689B681A43BB68DB6820
:10271000F96809681A437B6918331B010B441A6076
:10272000FB681968BB681A697B6918331B010B4485
:1027300004331A60BB681B7D012B11D1FB681A683A
:102740007B6918331B01134404331B68FA68116852
:1027500043F480727B6918331B010B4404331A6005
:102760007B6807331B781A067B6806331B781B04CB
:102770001A437B6805331B781B0213437A680432C3
:1027800012781046FA68116843EA00027B691B015F
:102790000B4403F5C6731A607B6803331B781A0673
:1027A0007B6802331B781B041A437B6801331B7858
:1027B0001B0213437A6812781046FA68116843EADC
:1027C00000027B691B010B4403F5C4731A60FB68AC
:1027D0001A687B6918331B0113441B68FA68116877
:1027E00043F001027B6918331B010B441A6000237C
:1027F0000EE0FB685B6A43F40012FB685A62012337
:1028000006E0FB685B6A43F48022FB685A6201239E
:1028100018462437BD465DF8047B704780B487B006
:1028200000AFF860B9607A603B60FB6893F82030D5
:10283000FB75FB7D012B03D0FB7D022B40F0038158
:10284000BB68002B0ED1FB681B68DB6803F0030339
:10285000002B16D1FB685B6A43F40012FB685A62D6
:102860000123F7E0FB681B681B6903F00303002BDF
:1028700007D1FB685B6A43F40012FB685A620123CC
:10288000E8E0FB681A68BB681B331B0113441B6834
:1028900003F004027B689A607B689B68002B0CD174
:1028A000FB681A68BB681B331B0113441B685B0D74
:1028B000C3F30A027B681A600BE0FB681A68BB6806
:1028C0001B331B0113441B68DB0823F060427B6849
:1028D0005A60FB681A68BB681B331B0113441B68F2
:1028E00003F002027B68DA60FB681A68BB681B337E
:1028F0001B01134404331B6803F00803002B03D0AF
:102900007B6808221A610BE0FB681A68BB681B33FE
:102910001B01134404331B6803F00F027B681A6128
:10292000FB681A68BB681B331B01134404331B6824
:102930001B0ADAB27B689A61FB681A68BB681B33B2
:102940001B01134404331B681B0C9AB27B685A6149
:10295000FB681A68BB681B01134403F5DC731B6832
:10296000DAB23B681A70FB681A68BB681B01134433
:1029700003F5DC731B681A0A3B680133D2B21A7084
:10298000FB681A68BB681B01134403F5DC731B6802
:102990001A0C3B680233D2B21A70FB681A68BB6823
:1029A0001B01134403F5DC731B681A0E3B680333E9
:1029B000D2B21A70FB681A68BB681B01134403F596
:1029C000DE731A683B680433D2B21A70FB681A6867
:1029D000BB681B01134403F5DE731B681A0A3B68CE
:1029E0000533D2B21A70FB681A68BB681B01134426
:1029F00003F5DE731B681A0C3B680633D2B21A70FB
:102A0000FB681A68BB681B01134403F5DE731B687F
:102A10001A0E3B680733D2B21A70BB68002B08D17C
:102A2000FB681B68DA68FB681B6842F02002DA600A
:102A300007E0FB681B681A69FB681B6842F020020C
:102A40001A61002306E0FB685B6A43F48022FB689E
:102A50005A62012318461C37BD465DF8047B704757
:102A600080B485B000AF786039607B6893F820301F
:102A7000FB73FB7B012B02D0FB7B022B09D17B6814
:102A80001B6859697B681B683A680A435A610023CE
:102A900006E07B685B6A43F480227B685A6201230C
:102AA00018461437BD465DF8047B704780B58AB080
:102AB00000AF786000237B627B681B685B693B62C8
:102AC0007B681B685B68FB617B681B689B68BB61FC
:102AD0007B681B68DB687B617B681B681B693B61EB
:102AE0007B681B689B69FB603B6A03F00103002B5A
:102AF0007CD0BB6903F00103002B23D07B681B68EB
:102B000001229A60BB6903F00203002B03D07868AE
:102B100000F083F916E0BB6903F00403002B04D036
:102B20007B6A43F400637B620CE0BB6903F008033B
:102B3000002B04D07B6A43F480537B6202E0786808
:102B400000F089F9BB6903F48073002B24D07B6803
:102B50001B684FF480729A60BB6903F40073002B0A
:102B600003D0786800F063F916E0BB6903F4806372
:102B7000002B04D07B6A43F400537B620CE0BB69FA
:102B800003F40063002B04D07B6A43F480437B6230
:102B900002E0786800F069F9BB6903F48033002B28
:102BA00024D07B681B684FF480329A60BB6903F4C1
:102BB0000033002B03D0786800F043F916E0BB69BE
:102BC00003F48023002B04D07B6A43F400437B6230
:102BD0000CE0BB6903F40023002B04D07B6A43F4B0
:102BE00080337B6202E0786800F049F93B6A03F0C9
:102BF0000803002B0CD07B6903F01003002B07D0D7
:102C00007B6A43F400737B627B681B681022DA6086
:102C10003B6A03F00403002B0BD07B6903F008032D
:102C2000002B06D07B681B680822DA60786800F009
:102C300030F93B6A03F00203002B09D07B681B6864
:102C4000DB6803F00303002B02D07868FEF70CFF6B
:102C50003B6A03F04003002B0CD03B6903F01003E8
:102C6000002B07D07B6A43F480637B627B681B6820
:102C700010221A613B6A03F02003002B0BD03B6942
:102C800003F00803002B06D07B681B6808221A613A
:102C9000786800F012F93B6A03F01003002B09D0AA
:102CA0007B681B681B6903F00303002B02D0786864
:102CB00000F0F9F83B6A03F40033002B0BD0FB69FA
:102CC00003F01003002B06D07B681B6810225A60AB
:102CD000786800F0FCF83B6A03F48033002B0BD0DB
:102CE000FB6903F00803002B06D07B681B680822F1
:102CF0005A60786800F0F5F83B6A03F40043002B53
:102D00007BD0FB6903F00403002B72D03B6A03F411
:102D10008073002B08D0FB6803F00103002B03D065
:102D20007B6A43F001037B623B6A03F40073002B70
:102D300008D0FB6803F00203002B03D07B6A43F04A
:102D400002037B623B6A03F48063002B08D0FB68BC
:102D500003F00403002B03D07B6A43F004037B627F
:102D60003B6A03F40063002B43D0FB6803F070035D
:102D7000002B3ED0FB6803F07003602B2BD0602B40
:102D80002ED8502B22D0502B2AD8402B19D0402B94
:102D900026D8302B10D0302B22D8102B02D0202B4D
:102DA00005D01DE07B6A43F008037B6219E07B6A73
:102DB00043F010037B6214E07B6A43F020037B62E4
:102DC0000FE07B6A43F040037B620AE07B6A43F0DA
:102DD00080037B6205E07B6A43F480737B6200E0E2
:102DE00000BF7B681B689A697B681B6822F07002D1
:102DF0009A617B681B6804225A607B6A002B08D0AA
:102E00007B685A6A7B6A1A437B685A62786800F06A
:102E100072F800BF2837BD4680BD80B483B000AFD4
:102E2000786000BF0C37BD465DF8047B704780B406
:102E300083B000AF786000BF0C37BD465DF8047BFF
:102E4000704780B483B000AF786000BF0C37BD46D8
:102E50005DF8047B704780B483B000AF786000BF3A
:102E60000C37BD465DF8047B704780B483B000AF7B
:102E7000786000BF0C37BD465DF8047B704780B4B6
:102E800083B000AF786000BF0C37BD465DF8047BAF
:102E9000704780B483B000AF786000BF0C37BD4688
:102EA0005DF8047B704780B483B000AF786000BFEA
:102EB0000C37BD465DF8047B704780B483B000AF2B
:102EC000786000BF0C37BD465DF8047B704780B466
:102ED00083B000AF786000BF0C37BD465DF8047B5F
:102EE000704780B483B000AF786000BF0C37BD4638
:102EF0005DF8047B704780B483B000AF786000BF9A
:102F00000C37BD465DF8047B7047000080B485B087
:102F100000AF78607B6803F00703FB600C4BDB6855
:102F2000BB60BA684FF6FF031340BB60FB681A0230
:102F3000BB68134343F0BF6343F40033BB60044AF0
:102F4000BB68D36000BF1437BD465DF8047B704793
:102F500000ED00E080B400AF044BDB681B0A03F017
:102F600007031846BD465DF8047B704700ED00E09E
:102F700080B483B000AF0346FB7197F90730002B94
:102F80000BDBFB7903F01F02074997F907305B0958
:102F9000012000FA02F241F8232000BF0C37BD46A1
:102FA0005DF8047B704700BF00E100E080B483B0AF
:102FB00000AF03463960FB7197F90730002B0ADB3D
:102FC0003B68DAB20C4997F907301201D2B20B44D0
:102FD00083F800230AE03B68DAB20849FB7903F082
:102FE0000F03043B1201D2B20B441A7600BF0C3718
:102FF000BD465DF8047B704700E100E000ED00E0B5
:1030000080B489B000AFF860B9607A60FB6803F003
:103010000703FB61FB69C3F10703042B28BF0423EB
:10302000BB61FB690433062B02D9FB69033B00E05B
:1030300000237B614FF0FF32BB6902FA03F3DA43EE
:10304000BB681A407B699A404FF0FF317B6901FAF7
:1030500003F3D9437B680B40134318462437BD461E
:103060005DF8047B7047000080B582B000AF7860E7
:103070007B68013BB3F1807F01D301230FE00A4A53
:103080007B68013B53600F214FF0FF30FFF78EFF4D
:10309000054B00229A60044B07221A600023184651
:1030A0000837BD4680BD00BF10E000E080B582B0AB
:1030B00000AF78607868FFF729FF00BF0837BD468A
:1030C00080BD80B586B000AF0346B9607A60FB73FF
:1030D00000237B61FFF73EFF78617A68B968786901
:1030E000FFF78EFF024697F90F3011461846FFF79B
:1030F0005DFF00BF1837BD4680BD80B582B000AF10
:103100000346FB7197F907301846FFF731FF00BF00
:103110000837BD4680BD80B582B000AF7860786862
:10312000FFF7A2FF034618460837BD4680BD80B5AD
:1031300084B000AF78607B689B6DFB60FFF74EF852
:10314000B8607B6893F83530DBB2022B08D07B681F
:1031500080225A657B68002283F83420012352E0E4
:103160007B681B681A687B681B6822F016021A606D
:103170007B681B685A697B681B6822F080025A6171
:103180007B681B6C002B03D17B689B6C002B07D0EA
:103190007B681B681A687B681B6822F008021A604B
:1031A0007B681B681A687B681B6822F001021A6042
:1031B00013E0FFF713F80246BB68D31A052B0CD9AE
:1031C0007B6820225A657B68032283F835207B6860
:1031D000002283F83420032315E07B681B681B68FA
:1031E00003F00103002BE4D17B68DB6D3F229A40A2
:1031F000FB689A607B68012283F835207B68002297
:1032000083F83420002318461037BD4680BD80B4B3
:1032100083B000AF78607B6893F83530DBB2022B67
:1032200004D07B6880225A6501230CE07B6805226C
:1032300083F835207B681B681A687B681B6822F05E
:1032400001021A60002318460C37BD465DF8047B66
:103250007047000080B489B000AF78603960002307
:103260007B6100233B610023BB610023FB616BE1B9
:103270000122FB6902FA03F37B613B681B687A69F0
:1032800013403B613A697B699A4240F05A813B683E
:103290005B6803F00303012B05D03B685B6803F018
:1032A0000303022B30D17B689B68BB61FB695B0029
:1032B000032202FA03F3DB43BA691340BB613B68A4
:1032C000DA68FB695B0002FA03F3BA691343BB6176
:1032D0007B68BA699A607B685B68BB610122FB69A5
:1032E00002FA03F3DB43BA691340BB613B685B68D6
:1032F0001B0903F00102FB6902FA03F3BA691343E5
:10330000BB617B68BA695A603B685B6803F0030382
:10331000032B17D07B68DB68BB61FB695B00032272
:1033200002FA03F3DB43BA691340BB613B689A6856
:10333000FB695B0002FA03F3BA691343BB617B6864
:10334000BA69DA603B685B6803F00303022B23D1A0
:10335000FB69DA087B68083253F82230BB61FB69ED
:1033600003F007039B000F2202FA03F3DB43BA6961
:103370001340BB613B681A69FB6903F007039B00BC
:1033800002FA03F3BA691343BB61FB69DA087B688D
:103390000832B96943F822107B681B68BB61FB697E
:1033A0005B00032202FA03F3DB43BA691340BB61FB
:1033B0003B685B6803F00302FB695B0002FA03F3FE
:1033C000BA691343BB617B68BA691A603B685B6882
:1033D00003F44033002B00F0B4800023FB60604B0B
:1033E0005B6C5F4A43F4804353645D4B5B6C03F456
:1033F0008043FB60FB685B4AFB699B08023352F821
:103400002330BB61FB6903F003039B000F2202FA28
:1034100003F3DB43BA691340BB617B68524A9342B2
:103420002BD07B68514A934225D07B68504A934207
:103430001FD07B684F4A934219D07B684E4A934213
:1034400013D07B684D4A93420DD07B684C4A93421F
:1034500007D07B684B4A934201D107230EE0082333
:103460000CE006230AE0052308E0042306E003231A
:1034700004E0022302E0012300E00023FA6902F0E5
:10348000030292009340BA691343BB613549FB695B
:103490009B080233BA6941F823203B4B9B68BB6110
:1034A0003B69DB43BA691340BB613B685B6803F46B
:1034B0008013002B03D0BA693B691343BB61324AC6
:1034C000BB699360304BDB68BB613B69DB43BA6926
:1034D0001340BB613B685B6803F40013002B03D00F
:1034E000BA693B691343BB61274ABB69D360264B6A
:1034F0005B68BB613B69DB43BA691340BB613B68F6
:103500005B6803F40033002B03D0BA693B691343B3
:10351000BB611D4ABB6953601B4B1B68BB613B69A8
:10352000DB43BA691340BB613B685B6803F48033DB
:10353000002B03D0BA693B691343BB61124ABB69D4
:103540001360FB690133FB61FB690F2B7FF690AEC3
:1035500000BF00BF2437BD465DF8047B704700BF45
:1035600000380240003801400000024000040240E0
:1035700000080240000C024000100240001402400B
:1035800000180240001C0240003C014080B485B09D
:1035900000AF78600B467B807B681A697B8813409C
:1035A000002B02D00123FB7301E00023FB73FB7BA4
:1035B00018461437BD465DF8047B704780B483B06D
:1035C00000AF78600B467B8013467B707B78002BC6
:1035D00003D07A887B689A6103E07B881A047B6851
:1035E0009A6100BF0C37BD465DF8047B7047000050
:1035F00080B582B000AF0346FB80084B5A69FB8858
:103600001340002B06D0054AFB885361FB881846FF
:1036100000F006F800BF0837BD4680BD003C014001
:1036200080B483B000AF0346FB8000BF0C37BD46BB
:103630005DF8047B7047000080B586B000AF78600D
:103640007B68002B01D1012367E27B681B6803F0D4
:103650000103002B75D0884B9B6803F00C03042BEF
:103660000CD0854B9B6803F00C03082B12D1824BC6
:103670005B6803F48003B3F5800F0BD17E4B1B68AE
:1036800003F40033002B5BD07B685B68002B57D1C1
:10369000012342E27B685B68B3F5803F06D1764B3D
:1036A0001B68754A43F4803313601DE07B685B68D8
:1036B000B3F5A02F0CD1704B1B686F4A43F48023E5
:1036C00013606D4B1B686C4A43F4803313600BE04E
:1036D000694B1B68684A23F480331360664B1B6890
:1036E000654A23F4802313607B685B68002B13D04A
:1036F000FEF774FD386108E0FEF770FD02463B6995
:10370000D31A642B01D9032307E25B4B1B6803F434
:103710000033002BF0D014E0FEF760FD386108E0C4
:10372000FEF75CFD02463B69D31A642B01D90323E3
:10373000F3E1514B1B6803F40033002BF0D100E0A0
:1037400000BF7B681B6803F00203002B63D04A4B69
:103750009B6803F00C03002B0BD0474B9B6803F0D6
:103760000C03082B1CD1444B5B6803F48003002B33
:1037700016D1414B1B6803F00203002B05D07B6878
:10378000DB68012B01D00123C7E13B4B1B6823F011
:10379000F8027B681B69DB00374913430B603AE092
:1037A0007B68DB68002B20D0344B01221A60FEF7C7
:1037B00015FD386108E0FEF711FD02463B69D31A9A
:1037C000022B01D90323A8E12B4B1B6803F0020352
:1037D000002BF0D0284B1B6823F0F8027B681B6994
:1037E000DB00254913430B6015E0244B00221A60CF
:1037F000FEF7F4FC386108E0FEF7F0FC02463B6996
:10380000D31A022B01D9032387E11B4B1B6803F05A
:103810000203002BF0D17B681B6803F00803002B28
:1038200036D07B685B69002B16D0154B01221A60DD
:10383000FEF7D4FC386108E0FEF7D0FC02463B6995
:10384000D31A022B01D9032367E10B4B5B6F03F003
:103850000203002BF0D01BE0094B00221A60FEF798
:10386000BDFC38610EE0FEF7B9FC02463B69D31A95
:10387000022B07D9032350E10038024000004742E1
:10388000800E4742884B5B6F03F00203002BEAD1A6
:103890007B681B6803F00403002B00F09780002373
:1038A000FB75814B1B6C03F08053002B0FD1002361
:1038B000BB607D4B1B6C7C4A43F0805313647A4B96
:1038C0001B6C03F08053BB60BB680123FB75774B17
:1038D0001B6803F48073002B18D1744B1B68734A68
:1038E00043F480731360FEF779FC386108E0FEF75B
:1038F00075FC02463B69D31A022B01D903230CE164
:103900006A4B1B6803F48073002BF0D07B689B68C4
:10391000012B06D1644B1B6F634A43F0010313670D
:103920001CE07B689B68052B0CD15F4B1B6F5E4ACC
:1039300043F0040313675C4B1B6F5B4A43F00103C6
:1039400013670BE0584B1B6F574A23F001031367B3
:10395000554B1B6F544A23F0040313677B689B6825
:10396000002B15D0FEF73AFC38610AE0FEF736FC72
:1039700002463B69D31A41F28832934201D90323AC
:10398000CBE0494B1B6F03F00203002BEED014E099
:10399000FEF724FC38610AE0FEF720FC02463B6992
:1039A000D31A41F28832934201D90323B5E03E4B4A
:1039B0001B6F03F00203002BEED1FB7D012B05D121
:1039C000394B1B6C384A23F0805313647B689B6926
:1039D000002B00F0A180344B9B6803F00C03082BF4
:1039E0005CD07B689B69022B41D1314B00221A606D
:1039F000FEF7F4FB386108E0FEF7F0FB02463B6996
:103A0000D31A022B01D9032387E0274B1B6803F04D
:103A10000073002BF0D17B68DA697B681B6A1A435C
:103A20007B685B6A9B011A437B689B6A5B08013B6E
:103A30001B041A437B68DB6A1B061B4913434B605C
:103A40001B4B01221A60FEF7C9FB386108E0FEF744
:103A5000C5FB02463B69D31A022B01D903235CE064
:103A6000114B1B6803F00073002BF0D054E0104B97
:103A700000221A60FEF7B2FB386108E0FEF7AEFBE9
:103A800002463B69D31A022B01D9032345E0064BBA
:103A90001B6803F00073002BF0D13DE07B689B694D
:103AA000012B07D1012338E00038024000700040AC
:103AB000600047421B4B5B68FB607B689B69012B86
:103AC00028D0FB6803F480027B68DB699A4221D12D
:103AD000FB6803F03F027B681B6A9A421AD1FA68BE
:103AE00047F6C07313407A68526A9201934211D12B
:103AF000FB6803F440327B689B6A5B08013B1B0454
:103B00009A4207D1FB6803F070627B68DB6A1B0690
:103B10009A4201D0012300E0002318461837BD4621
:103B200080BD00BF0038024080B584B000AF78602F
:103B300039607B68002B01D10123CCE0684B1B6806
:103B400003F007033A689A420CD9654B3A68D2B23F
:103B50001A70634B1B6803F007033A689A4201D05E
:103B60000123B8E07B681B6803F00203002B20D020
:103B70007B681B6803F00403002B05D0594B9B683E
:103B8000584A43F4E05393607B681B6803F00803D2
:103B9000002B05D0534B9B68524A43F4604393601B
:103BA000504B9B6823F0F0027B689B684D491343A0
:103BB0008B607B681B6803F00103002B44D07B689B
:103BC0005B68012B07D1474B1B6803F40033002BC4
:103BD00019D101237FE07B685B68022B03D07B68EF
:103BE0005B68032B07D13F4B1B6803F00073002B6E
:103BF00009D101236FE03B4B1B6803F00203002B4C
:103C000001D1012367E0374B9B6823F003027B68F7
:103C10005B68344913438B60FEF7E0FAF8600AE012
:103C2000FEF7DCFA0246FB68D31A41F2883293426F
:103C300001D903234FE02B4B9B6803F00C027B68F8
:103C40005B689B009A42EBD1254B1B6803F007038E
:103C50003A689A420CD2224B3A68D2B21A70204B80
:103C60001B6803F007033A689A4201D0012332E04F
:103C70007B681B6803F00403002B08D0194B9B687A
:103C800023F4E0527B68DB68164913438B607B6842
:103C90001B6803F00803002B09D0124B9B6823F428
:103CA00060427B681B69DB000E4913438B6000F0A8
:103CB00021F802460B4B9B681B0903F00F030A49CE
:103CC000CB5C22FA03F3094A1360094B1B681846C0
:103CD000FEF740FA002318461037BD4680BD00BFEE
:103CE000003C02400038024094630008300000208D
:103CF000340000202DE9B04F94B000AF00237B6466
:103D00000023FB6400233B640023BB64794B9B6866
:103D100003F00C03082B0DD0082B00F2E180002BE0
:103D200002D0042B03D0DBE0734BBB64DBE0734BAE
:103D3000BB64D8E06F4B5B6803F03F037B646D4B63
:103D40005B6803F48003002B63D06A4B5B689B09BC
:103D50000022BB63FA63BB6BC3F308033B6300231E
:103D60007B63D7E90C4522462B464FF000004FF00D
:103D70000001590141EAD261500102460B46214639
:103D8000511A3961294663EB01037B614FF0000250
:103D90004FF00003D7E904AB59468B01514643EA83
:103DA000916351468A015146B2EB0108594663EBD3
:103DB00001094FF000024FF000034FEAC90343EA44
:103DC00058734FEAC80290469946234618EB0303FE
:103DD000BB602B4649EB0303FB604FF000024FF042
:103DE0000003D7E9024529464B02214643EAD15355
:103DF00021464A02104619467B6C0022BB62FA62D9
:103E0000D7E90A23FCF734FA02460B461346FB6453
:103E100058E0384B5B689B09002218461146C0F3F6
:103E200008033B6200237B62D7E9088942464B4680
:103E30004FF000004FF00001590141EAD2615001FA
:103E400002460B464146B2EB010A494663EB010BC1
:103E50004FF000024FF000034FEA8B1343EA9A63DE
:103E60004FEA8A12B2EB0A0463EB0B054FF0000233
:103E70004FF00003EB0043EA5473E20014461D4682
:103E80004346E3183B604B4645EB03037B604FF032
:103E900000024FF00003D7E9004529468B02214676
:103EA00043EA915321468A02104619467B6C002250
:103EB000BB61FA61D7E90623FCF7DAF902460B4643
:103EC0001346FB640B4B5B681B0C03F003030133CD
:103ED0005B003B64FA6C3B6CB2FBF3F3BB6402E047
:103EE000054BBB6400BFBB6C18465037BD46BDE8F0
:103EF000B08F00BF003802400024F40000127A00A6
:103F000080B400AF034B1B681846BD465DF8047BC8
:103F1000704700BF3000002080B500AFFFF7F0FF12
:103F20000246054B9B689B0A03F007030349CB5CE1
:103F300022FA03F3184680BD00380240A46300084B
:103F400080B500AFFFF7DCFF0246054B9B685B0BBB
:103F500003F007030349CB5C22FA03F3184680BD44
:103F600000380240A463000880B582B000AF7860DA
:103F70007B68002B01D1012341E07B6893F83D3041
:103F8000DBB2002B06D17B68002283F83C207868E6
:103F9000FDF752FF7B68022283F83D207B681A6898
:103FA0007B6804331946104600F0ACFA7B680122A6
:103FB00083F846207B68012283F83E207B6801223B
:103FC00083F83F207B68012283F840207B68012230
:103FD00083F841207B68012283F842207B6801221C
:103FE00083F843207B68012283F844207B68012208
:103FF00083F845207B68012283F83D200023184682
:104000000837BD4680BD000080B485B000AF786041
:104010007B6893F83D30DBB2012B01D001234EE0E9
:104020007B68022283F83D207B681B68DA687B6826
:104030001B6842F00102DA607B681B68234A9342E6
:1040400022D07B681B68B3F1804F1DD07B681B6852
:104050001F4A934218D07B681B681E4A934213D0B4
:104060007B681B681C4A93420ED07B681B681B4A06
:10407000934209D07B681B68194A934204D07B683D
:104080001B68184A934211D17B681B689B6803F038
:104090000703FB60FB68062B10D07B681B681A685F
:1040A0007B681B6842F001021A6007E07B681B68AE
:1040B0001A687B681B6842F001021A6000231846E8
:1040C0001437BD465DF8047B704700BF0000014017
:1040D0000004004000080040000C004000040140C3
:1040E000004001400018004080B483B000AF786009
:1040F0007B681B68DA687B681B6822F00102DA6063
:104100007B681B681A6A41F211131340002B0FD110
:104110007B681B681A6A40F244431340002B07D1A6
:104120007B681B681A687B681B6822F001021A60B2
:104130007B68012283F83D20002318460C37BD46DA
:104140005DF8047B704780B584B000AF78607B6811
:104150001B68DB68FB607B681B681B69BB60BB6816
:1041600003F00203002B20D0FB6803F00203002BB6
:104170001BD07B681B686FF002021A617B6801220A
:104180001A777B681B689B6903F00303002B03D03D
:10419000786800F099F905E0786800F08BF97868A4
:1041A00000F09CF97B6800221A77BB6803F00403D7
:1041B000002B20D0FB6803F00403002B1BD07B688E
:1041C0001B686FF004021A617B6802221A777B6811
:1041D0001B689B6903F44073002B03D0786800F0E0
:1041E00073F905E0786800F065F9786800F076F911
:1041F0007B6800221A77BB6803F00803002B20D0ED
:10420000FB6803F00803002B1BD07B681B686FF072
:1042100008021A617B6804221A777B681B68DB69D5
:1042200003F00303002B03D0786800F04DF905E09C
:10423000786800F03FF9786800F050F97B68002258
:104240001A77BB6803F01003002B20D0FB6803F043
:104250001003002B1BD07B681B686FF010021A61E3
:104260007B6808221A777B681B68DB6903F440735C
:10427000002B03D0786800F027F905E0786800F09B
:1042800019F9786800F02AF97B6800221A77BB6870
:1042900003F00103002B0CD0FB6803F00103002B9B
:1042A00007D07B681B686FF001021A617868FDF720
:1042B000BDFCBB6803F08003002B0CD0FB6803F04F
:1042C0008003002B07D07B681B686FF080021A61A7
:1042D000786800F0E3FABB6803F04003002B0CD0D1
:1042E000FB6803F04003002B07D07B681B686FF06E
:1042F00040021A61786800F0FBF8BB6803F0200305
:10430000002B0CD0FB6803F02003002B07D07B6848
:104310001B686FF020021A61786800F0B5FA00BFE0
:104320001037BD4680BD80B584B000AF786039607D
:104330000023FB737B6893F83C30012B01D10223EF
:10434000B4E07B68012283F83C207B68022283F87A
:104350003D207B681B689B68BB60BB6823F07703CC
:10436000BB60BB6823F47F43BB607B681B68BA6893
:104370009A603B681B68B3F5005F3ED0B3F5005F01
:1043800000F28780B3F5805F00F08680B3F5805F30
:104390007FD8702B1AD0702B7BD8602B50D0602B1D
:1043A00077D8502B3CD0502B73D8402B58D0402B73
:1043B0006FD8302B64D0302B6BD8202B60D0202BC3
:1043C00067D8002B5CD0102B5AD062E07B6818684D
:1043D0003B6899683B685A683B68DB6800F0B8F94D
:1043E0007B681B689B68BB60BB6843F07703BB605E
:1043F0007B681B68BA689A604FE07B6818683B6806
:1044000099683B685A683B68DB6800F0A1F97B68F3
:104410001B689A687B681B6842F480429A603CE0A3
:104420007B6818683B6859683B68DB681A4600F08F
:1044300015F97B681B685021184600F06EF92CE0D6
:104440007B6818683B6859683B68DB681A4600F06F
:1044500034F97B681B686021184600F05EF91CE0A7
:104460007B6818683B6859683B68DB681A4600F04F
:10447000F5F87B681B684021184600F04EF90CE007
:104480007B681A683B681B681946104600F045F9BE
:1044900003E00123FB7300E000BF7B68012283F887
:1044A0003D207B68002283F83C20FB7B18461037B8
:1044B000BD4680BD80B483B000AF786000BF0C37CC
:1044C000BD465DF8047B704780B483B000AF786070
:1044D00000BF0C37BD465DF8047B704780B483B0E5
:1044E00000AF786000BF0C37BD465DF8047B7047B5
:1044F00080B483B000AF786000BF0C37BD465DF874
:10450000047B704780B485B000AF786039607B6809
:104510001B68FB607B68464A934213D07B68B3F10B
:10452000804F0FD07B68434A93420BD07B68424A4E
:10453000934207D07B68414A934203D07B68404A4C
:10454000934208D1FB6823F07003FB603B685B6813
:10455000FA681343FB607B68354A93422BD07B6833
:10456000B3F1804F27D07B68324A934223D07B68D7
:10457000314A93421FD07B68304A93421BD07B68FC
:104580002F4A934217D07B682E4A934213D07B6800
:104590002D4A93420FD07B682C4A93420BD07B6804
:1045A0002B4A934207D07B682A4A934203D07B6808
:1045B000294A934208D1FB6823F44073FB603B68AF
:1045C000DB68FA681343FB60FB6823F080023B68FA
:1045D0005B691343FB607B68FA681A603B689A6802
:1045E0007B68DA623B681A687B689A627B68104A6B
:1045F000934203D07B68124A934203D13B681A6905
:104600007B681A637B6801225A617B681B6903F02F
:104610000103012B05D17B681B6923F001027B6834
:104620001A6100BF1437BD465DF8047B704700BFB8
:10463000000001400004004000080040000C004061
:104640000004014000400140004401400048014096
:1046500000180040001C00400020004080B487B0DB
:1046600000AFF860B9607A60FB681B6A7B61FB6829
:104670001B6A23F00102FB681A62FB689B693B61BD
:104680003B6923F0F0033B617B681B013A691343EC
:104690003B617B6923F00A037B617A69BB68134342
:1046A0007B61FB683A699A61FB687A691A6200BFAC
:1046B0001C37BD465DF8047B704780B487B000AFFF
:1046C000F860B9607A60FB681B6A7B61FB681B6AF3
:1046D00023F01002FB681A62FB689B693B613B692F
:1046E00023F470433B617B681B033A6913433B61CE
:1046F0007B6923F0A0037B61BB681B017A691343CC
:104700007B61FB683A699A61FB687A691A6200BF4B
:104710001C37BD465DF8047B704780B485B000AFA0
:10472000786039607B689B68FB60FB6823F07003EE
:10473000FB603A68FB68134343F00703FB607B6848
:10474000FA689A6000BF1437BD465DF8047B704775
:1047500080B487B000AFF860B9607A603B60FB68F6
:104760009B687B617B6923F47F437B613B681A0212
:104770007B681A43BB6813437A6913437B61FB6808
:104780007A699A6000BF1C37BD465DF8047B7047AC
:1047900080B485B000AF786039607B6893F83C30B6
:1047A000012B01D102235AE07B68012283F83C20CF
:1047B0007B68022283F83D207B681B685B68FB6096
:1047C0007B681B689B68BB60FB6823F07003FB6021
:1047D0003B681B68FA681343FB607B681B68FA68D8
:1047E0005A607B681B68214A934222D07B681B6811
:1047F000B3F1804F1DD07B681B681D4A934218D0CF
:104800007B681B681B4A934213D07B681B681A4A5B
:1048100093420ED07B681B68184A934209D07B688C
:104820001B68174A934204D07B681B68154A934261
:104830000CD1BB6823F08003BB603B685B68BA683F
:104840001343BB607B681B68BA689A607B6801226F
:1048500083F83D207B68002283F83C200023184623
:104860001437BD465DF8047B704700BF000001406F
:104870000004004000080040000C0040000401401B
:10488000004001400018004080B483B000AF786061
:1048900000BF0C37BD465DF8047B704780B483B021
:1048A00000AF786000BF0C37BD465DF8047B7047F1
:1048B00080B582B000AF78607B68002B01D1012306
:1048C00042E07B6893F84130DBB2002B06D17B6875
:1048D000002283F840207868FDF7D6FA7B6824220E
:1048E00083F841207B681B68DA687B681B6822F4C8
:1048F0000052DA60786800F0BDFD7B681B681A69B9
:104900007B681B6822F490421A617B681B685A69B5
:104910007B681B6822F02A025A617B681B68DA6890
:104920007B681B6842F40052DA607B6800225A649C
:104930007B68202283F841207B68202283F8422074
:104940007B6800225A63002318460837BD4680BDA5
:1049500080B58AB002AFF860B9603B601346FB8057
:1049600000237B61FB6893F84130DBB2202B75D1CB
:10497000BB68002B02D0FB88002B01D101236EE025
:10498000FB6800225A64FB68212283F84120FDF76E
:1049900025FC7861FB68FA889A84FB68FA88DA84D7
:1049A000FB689B68B3F5805F08D1FB681B69002B2F
:1049B00004D10023FB61BB68BB6103E0BB68FB6102
:1049C0000023BB612EE03B6800937B6900228021BD
:1049D000F86800F01FFB0346002B05D0FB6820227F
:1049E00083F8412003233AE0FB69002B0BD1BB691C
:1049F0001B881A46FB681B68C2F308025A60BB6931
:104A00000233BB6107E0FB691A78FB681B685A60D8
:104A1000FB690133FB61FB68DB8C9BB2013B9AB203
:104A2000FB68DA84FB68DB8C9BB2002BCBD13B6844
:104A300000937B6900224021F86800F0EBFA0346FE
:104A4000002B05D0FB68202283F84120032306E0D9
:104A5000FB68202283F84120002300E0022318464F
:104A60002037BD4680BD80B584B000AFF860B96026
:104A70001346FB80FB6893F84230DBB2202B12D147
:104A8000BB68002B02D0FB88002B01D101230BE077
:104A9000FB6800221A63FB881A46B968F86800F0C0
:104AA00012FB034600E0022318461037BD4680BDC6
:104AB00080B5BAB000AF78607B681B681B68C7F828
:104AC000E4307B681B68DB68C7F8E0307B681B68F4
:104AD0005B69C7F8DC300023C7F8D8300023C7F87B
:104AE000D430D7F8E43003F00F03C7F8D830D7F844
:104AF000D830002B0FD1D7F8E43003F02003002B7F
:104B000009D0D7F8E03003F02003002B03D07868F9
:104B100000F0F2FB5BE2D7F8D830002B00F0DE802B
:104B2000D7F8DC3003F00103002B06D1D7F8E030D2
:104B300003F49073002B00F0D180D7F8E43003F039
:104B40000103002B0BD0D7F8E03003F48073002B67
:104B500005D07B685B6C43F001027B685A64D7F830
:104B6000E43003F00403002B0BD0D7F8DC3003F063
:104B70000103002B05D07B685B6C43F002027B686D
:104B80005A64D7F8E43003F00203002B0BD0D7F8B7
:104B9000DC3003F00103002B05D07B685B6C43F035
:104BA00004027B685A64D7F8E43003F00803002B52
:104BB00011D0D7F8E03003F02003002B05D1D7F84F
:104BC000DC3003F00103002B05D07B685B6C43F005
:104BD00008027B685A647B685B6C002B00F0F281F2
:104BE000D7F8E43003F02003002B08D0D7F8E030EA
:104BF00003F02003002B02D0786800F07DFB7B6877
:104C00001B685B6903F04003402B0CBF01230023AA
:104C1000DBB2C7F8D4307B685B6C03F00803002B71
:104C200003D1D7F8D430002B4FD0786800F085FA44
:104C30007B681B685B6903F04003402B41D17B68B4
:104C40001B681433C7F89C30D7F89C3053E8003FFA
:104C5000C7F89830D7F8983023F04003C7F8D03021
:104C60007B681B681433D7F8D020C7F8A820C7F892
:104C7000A430D7F8A410D7F8A82041E80023C7F83B
:104C8000A030D7F8A030002BD9D17B68DB6B002B8C
:104C900013D07B68DB6B7E4A1A657B68DB6B18463A
:104CA000FEF7B5FA0346002B16D07B68DB6B1B6D55
:104CB0007A68D26B104698470EE0786800F094F955
:104CC0000AE0786800F090F906E0786800F08CF966
:104CD0007B6800225A6475E100BF73E17B681B6B3F
:104CE000012B40F04F81D7F8E43003F01003002B84
:104CF00000F04881D7F8E03003F01003002B00F0FB
:104D000041810023BB607B681B681B68BB607B68BC
:104D10001B685B68BB60BB687B681B685B6903F0F2
:104D20004003402B40F0B6807B68DB6B1B685B6800
:104D3000A7F8BE30B7F8BE30002B00F045817B6885
:104D40009B8DB7F8BE209A4280F03E817B68B7F811
:104D5000BE20DA857B68DB6BDB69B3F5807F00F012
:104D600088807B681B680C33C7F88830D7F8883098
:104D700053E8003FC7F88430D7F8843023F48073B9
:104D8000C7F8B8307B681B680C33D7F8B820C7F871
:104D90009420C7F89030D7F89010D7F8942041E8C5
:104DA0000023C7F88C30D7F88C30002BD9D17B6822
:104DB0001B6814337B677B6F53E8003F3B673B6F97
:104DC00023F00103C7F8B4307B681B681433D7F8AD
:104DD000B420C7F88020FB67F96FD7F8802041E83E
:104DE0000023BB67BB6F002BE1D17B681B681433CA
:104DF0003B663B6E53E8003FFB65FB6D23F04003D1
:104E0000C7F8B0307B681B681433D7F8B020FA6657
:104E1000BB66B96EFA6E41E800237B667B6E002BA1
:104E2000E3D17B68202283F842207B6800221A634A
:104E30007B681B680C33FB64FB6C53E8003FBB646E
:104E4000BB6C23F01003C7F8AC307B681B680C33D5
:104E5000D7F8AC20BA657B65796DBA6D41E800235F
:104E60003B653B6D002BE3D17B68DB6B1846FEF79F
:104E70005EF97B6802225A637B689A8D7B68DB8DC2
:104E80009BB2D31A9BB21946786800F0B7F89BE042
:104E9000015200087B689A8D7B68DB8D9BB2D31A28
:104EA000A7F8CE307B68DB8D9BB2002B00F08E80A4
:104EB000B7F8CE30002B00F089807B681B680C337C
:104EC000BB63BB6B53E8003F7B637B6B23F4907346
:104ED000C7F8C8307B681B680C33D7F8C8207A64E1
:104EE0003B64396C7A6C41E80023FB63FB6B002B5D
:104EF000E3D17B681B6814337B627B6A53E8003F15
:104F00003B623B6A23F00103C7F8C4307B681B682F
:104F10001433D7F8C4203A63FB62F96A3A6B41E86C
:104F20000023BB62BB6A002BE3D17B68202283F89D
:104F300042207B6800221A637B681B680C333B614C
:104F40003B6953E8003FFB60FB6823F01003C7F8A0
:104F5000C0307B681B680C33D7F8C020FA61BB6196
:104F6000B969FA6941E800237B617B69002BE3D1D1
:104F70007B6802225A63B7F8CE301946786800F091
:104F80003DF823E0D7F8E43003F08003002B09D08C
:104F9000D7F8E03003F08003002B03D0786800F0EE
:104FA00043F914E0D7F8E43003F04003002B0ED0AF
:104FB000D7F8E03003F04003002B08D0786800F009
:104FC00083F904E000BF02E000BF00E000BFE83763
:104FD000BD4680BD80B483B000AF786000BF0C37A1
:104FE000BD465DF8047B704780B483B000AF786045
:104FF00000BF0C37BD465DF8047B704780B483B0BA
:1050000000AF78600B467B8000BF0C37BD465DF873
:10501000047B704780B586B000AFF860B9603B6034
:105020001346FB713BE03B6AB3F1FF3F37D0FDF71E
:10503000D5F802463B68D31A3A6A9A4202D33B6AD1
:10504000002B01D103233AE0FB681B68DB6803F007
:105050000403002B23D0BB68802B20D0BB68402BDF
:105060001DD0FB681B681B6803F00803082B16D1D2
:1050700000237B61FB681B681B687B61FB681B6806
:105080005B687B617B69F86800F057F8FB68082271
:105090005A64FB68002283F8402001230FE0FB687C
:1050A0001B681A68BB681340BA689A420CBF012398
:1050B0000023DBB21A46FB799A42B4D0002318468B
:1050C0001837BD4680BD80B485B000AFF860B960C8
:1050D0001346FB80FB68BA689A62FB68FA889A8577
:1050E000FB68FA88DA85FB6800225A64FB68222292
:1050F00083F84220FB681B69002B07D0FB681B6804
:10510000DA68FB681B6842F48072DA60FB681B682F
:105110005A69FB681B6842F001025A61FB681B6810
:10512000DA68FB681B6842F02002DA600023184648
:105130001437BD465DF8047B704780B495B000AF6E
:1051400078607B681B680C337B637B6B53E8003FA4
:105150003B633B6B23F49073FB647B681B680C33ED
:10516000FA6C3A64FB63F96B3A6C41E80023BB6369
:10517000BB6B002BE5D17B681B6814333B623B6A39
:1051800053E8003FFB61FB6923F00103BB647B68CC
:105190001B681433BA6CFA62BB62B96AFA6A41E8F6
:1051A00000237B627B6A002BE5D17B681B6B012BA4
:1051B00019D17B681B680C33FB60FB6853E8003F28
:1051C000BB60BB6823F010037B647B681B680C33F7
:1051D0007A6CBA617B617969BA6941E800233B6105
:1051E0003B69002BE5D17B68202283F842207B6855
:1051F00000221A6300BF5437BD465DF8047B704738
:1052000080B584B000AF78607B689B6BFB60FB6807
:105210000022DA85FB680022DA84F868FFF7E4FEF2
:1052200000BF1037BD4680BD80B485B000AF786048
:105230007B6893F84130DBB2212B3ED17B689B68C1
:10524000B3F5805F14D17B681B69002B10D17B689C
:105250001B6AFB60FB681B881A467B681B68C2F3ED
:1052600008025A607B681B6A9A1C7B681A6208E015
:105270007B681B6A591C7A6811621A787B681B6804
:105280005A607B68DB8C9BB2013B9BB27A68194603
:10529000D184002B0FD17B681B68DA687B681B68A0
:1052A00022F08002DA607B681B68DA687B681B6822
:1052B00042F04002DA60002300E00223184614376F
:1052C000BD465DF8047B704780B582B000AF786062
:1052D0007B681B68DA687B681B6822F04002DA6032
:1052E0007B68202283F841207868FFF773FE002353
:1052F00018460837BD4680BD80B58CB000AF7860D9
:105300007B6893F84230DBB2222B40F0AE807B68A2
:105310009B68B3F5805F17D17B681B69002B13D1A5
:105320000023FB627B689B6ABB627B681B685B68CF
:105330009BB2C3F308039AB2BB6A1A807B689B6A6C
:105340009A1C7B689A6226E07B689B6AFB6200235A
:10535000BB627B689B68B3F5805F07D07B689B6806
:10536000002B0AD17B681B69002B06D17B681B6868
:105370005B68DAB2FB6A1A7008E07B681B685B68DE
:10538000DBB203F07F03DAB2FB6A1A707B689B6AB8
:105390005A1C7B689A627B68DB8D9BB2013B9BB297
:1053A0007A681946D185002B5DD17B681B68DA6865
:1053B0007B681B6822F02002DA607B681B68DA6871
:1053C0007B681B6822F48072DA607B681B685A690C
:1053D0007B681B6822F001025A617B68202283F8F7
:1053E00042207B6800225A637B681B6B012B35D1FE
:1053F0007B6800221A637B681B680C337B617B69C6
:1054000053E8003F3B613B6923F010037B627B68FC
:105410001B680C337A6A3A62FB61F9693A6A41E8BF
:105420000023BB61BB69002BE5D17B681B681B684F
:1054300003F01003102B0AD10023FB607B681B686C
:105440001B68FB607B681B685B68FB60FB687B68B4
:105450009B8D19467868FFF7D1FD02E07868FCF76C
:105460008DF9002302E0002300E0022318463037C4
:10547000BD4680BD2DE9B04FC0B000AFC7F8F40005
:10548000D7F8F4301B681B6923F44050D7F8F43088
:10549000D968D7F8F4301A6840EA01031361D7F8E5
:1054A000F4309A68D7F8F4301B691A43D7F8F4300F
:1054B0005B691A43D7F8F430DB691343C7F8F83057
:1054C000D7F8F4301B68DB6823F4164121F00C0197
:1054D000D7F8F4301A68D7F8F8300B43D360D7F810
:1054E000F4301B685B6923F44070D7F8F430996995
:1054F000D7F8F4301A6840EA01035361D7F8F43062
:105500001A688F4B9A4205D0D7F8F4301A688D4B41
:105510009A4204D1FEF714FDC7F8FC0003E0FEF741
:10552000FBFCC7F8FC00D7F8F430DB69B3F5004F9B
:1055300040F00C81D7F8FC300022C7F8E830C7F8FB
:10554000EC20D7E93A4522462B469118B9655B41D4
:10555000FB65D7E91623214612EB0108294643EBE8
:1055600001094FF000024FF000034FEAC90343EA7C
:1055700058734FEAC80290469946234618EB030336
:10558000C7F8E0302B4649EB0303C7F8E430D7F8FF
:10559000F4305B680022C7F8D830C7F8DC20D7E9C0
:1055A00036120B46DB183B65134642EB03037B6563
:1055B000D7E91423D7E93801FAF75AFE02460B4619
:1055C000614BA3FB02235B091C01D7F8FC300022CE
:1055D000C7F8D030C7F8D420D7E9348942464B46C3
:1055E0009118B9645B41FB64D7E91223414612EB81
:1055F000010A494643EB010B4FF000024FF0000354
:105600004FEACB0343EA5A734FEACA0292469B46DB
:1056100043461AEB0303C7F8C8304B464BEB030372
:10562000C7F8CC30D7F8F4305B680022C7F8C03038
:10563000C7F8C420D7E930120B46DB183B64134689
:1056400042EB03037B64D7E91023D7E93201FAF771
:105650000FFE02460B4611463B4BA3FB01235B09A1
:10566000642202FB03F3CB1ADB0003F13202364B58
:10567000A3FB02235B095B0003F4F8731C44D7F817
:10568000FC300022C7F8B830C7F8BC20D7E92E8913
:1056900042464B469118B9635B41FB63D7E90E2341
:1056A00041465118396349464B417B634FF0000234
:1056B0004FF00003D7E90CAB5946CB00514643EA03
:1056C00051735146CA0010461946034642469B187C
:1056D000C7F8B0304B460A4642EB0303C7F8B43074
:1056E000D7F8F4305B680022C7F8A830C7F8AC20C0
:1056F000D7E92A120B46DB18BB62134642EB0303C1
:10570000FB62D7E90A23D7E92C01FAF7B1FD02467B
:105710000B460D4BA3FB02135B09642101FB03F352
:10572000D31ADB003233084AA2FB03235B0903F0E0
:105730000702D7F8F4301B6822449A6006E100BFE4
:1057400000100140001401401F85EB51D7F8FC30D8
:105750000022C7F8A030C7F8A420D7E9288942461C
:105760004B46911839625B417B62D7E90823414679
:105770005418494643EB01054FF000024FF0000377
:10578000EB0043EA5473E20014461D464346E31817
:10579000C7F898304B4645EB0303C7F89C30D7F861
:1057A000F4305B680022C7F89030C7F894204FF0BF
:1057B00000024FF00003D7E9244529468B0021461B
:1057C00043EA917321468A00D7E92601FAF750FD92
:1057D00002460B46604BA3FB02235B091C01D7F872
:1057E000FC300022C7F88830C7F88C20D7E922891E
:1057F00042464B469118B9615B41FB61D7E90623EC
:1058000041465118396149464B417B614FF00002D6
:105810004FF00003D7E904AB5946CB00514643EAA9
:1058200051735146CA0010461946034642469B181A
:10583000C7F880304B460A4642EB0303C7F8843072
:10584000D7F8F4305B680022BB67FA674FF00002BC
:105850004FF00003D7E91E8949468B00414643EAD1
:10586000917341468A00D7E92001FAF701FD02460B
:105870000B461146384BA3FB01235B09642202FB54
:1058800003F3CB1A1B013233334AA2FB03235B0918
:1058900003F0F0031C44D7F8FC3000223B677A6722
:1058A000D7E91C8942464B469118B9605B41FB60C1
:1058B000D7E9022341465118396049464B417B6084
:1058C0004FF000024FF00003D7E900AB5946CB0080
:1058D000514643EA51735146CA00104619460346E1
:1058E00042469B18BB664B460A4642EB0303FB66E7
:1058F000D7F8F4305B6800223B667A664FF000020E
:105900004FF00003D7E9188949468B00414643EA26
:10591000917341468A00D7E91A01FAF7A9FC0246B9
:105920000B460D4BA3FB02135B09642101FB03F340
:10593000D31A1B013233084AA2FB03235B0903F08D
:105940000F02D7F8F4301B6822449A6000BF07F5B5
:105950008077BD46BDE8B08F1F85EB510EB410B502
:105960009DB01FAB029006906FF000410A4807916E
:1059700004910A4953F8042B0591002402A90068F8
:1059800001931B9400F0A2F9029B1C701DB0BDE8AE
:10599000104003B0704700BF3C0000200802FFFF2A
:1059A00002440346934200D1704703F8011BF9E714
:1059B000014B1868704700BF3C00002070B50D4DCA
:1059C0000D4C641BA4100026A64209D10B4D0C4CB3
:1059D00000F064FC641BA4100026A64205D170BD33
:1059E00055F8043B98470136EEE755F8043B9847D5
:1059F0000136F2E7E8630008E8630008E86300089E
:105A0000EC630008704770470A44914200F1FF338D
:105A100000D1704710B511F8014B03F8014F9142C6
:105A2000F9D110BD38B50546002941D051F8043CE4
:105A30000C1F002BB8BFE41800F0E0F81D4A1368F3
:105A400033B9636014602846BDE8384000F0DCB824
:105A5000A34208D9206821188B4201BF19685B68EE
:105A600009182160EDE71A465B680BB1A342FAD929
:105A700011685018A0420BD120680144501883428D
:105A80001160E0D118685B68536008441060DAE781
:105A900002D90C232B60D6E7206821188B4204BF63
:105AA00019685B68636004BF091821605460CAE725
:105AB00038BD00BFEC33002070B50F4E0C46316886
:105AC000054611B900F0A4FB30602146284600F0DD
:105AD0009FFB431C03D14FF0FF34204670BDC41C14
